{
  "_format": "hh-sol-artifact-1",
  "contractName": "TokenMaster",
  "sourceName": "contracts/TokenMaster.sol",
  "abi": [
    {
      "inputs": [
        {
          "internalType": "string",
          "name": "_name",
          "type": "string"
        },
        {
          "internalType": "string",
          "name": "_symbol",
          "type": "string"
        }
      ],
      "stateMutability": "nonpayable",
      "type": "constructor"
    },
    {
      "anonymous": false,
      "inputs": [
        {
          "indexed": true,
          "internalType": "address",
          "name": "owner",
          "type": "address"
        },
        {
          "indexed": true,
          "internalType": "address",
          "name": "approved",
          "type": "address"
        },
        {
          "indexed": true,
          "internalType": "uint256",
          "name": "tokenId",
          "type": "uint256"
        }
      ],
      "name": "Approval",
      "type": "event"
    },
    {
      "anonymous": false,
      "inputs": [
        {
          "indexed": true,
          "internalType": "address",
          "name": "owner",
          "type": "address"
        },
        {
          "indexed": true,
          "internalType": "address",
          "name": "operator",
          "type": "address"
        },
        {
          "indexed": false,
          "internalType": "bool",
          "name": "approved",
          "type": "bool"
        }
      ],
      "name": "ApprovalForAll",
      "type": "event"
    },
    {
      "anonymous": false,
      "inputs": [
        {
          "indexed": true,
          "internalType": "address",
          "name": "from",
          "type": "address"
        },
        {
          "indexed": true,
          "internalType": "address",
          "name": "to",
          "type": "address"
        },
        {
          "indexed": true,
          "internalType": "uint256",
          "name": "tokenId",
          "type": "uint256"
        }
      ],
      "name": "Transfer",
      "type": "event"
    },
    {
      "inputs": [
        {
          "internalType": "address",
          "name": "to",
          "type": "address"
        },
        {
          "internalType": "uint256",
          "name": "tokenId",
          "type": "uint256"
        }
      ],
      "name": "approve",
      "outputs": [],
      "stateMutability": "nonpayable",
      "type": "function"
    },
    {
      "inputs": [
        {
          "internalType": "address",
          "name": "owner",
          "type": "address"
        }
      ],
      "name": "balanceOf",
      "outputs": [
        {
          "internalType": "uint256",
          "name": "",
          "type": "uint256"
        }
      ],
      "stateMutability": "view",
      "type": "function"
    },
    {
      "inputs": [
        {
          "internalType": "uint256",
          "name": "tokenId",
          "type": "uint256"
        }
      ],
      "name": "getApproved",
      "outputs": [
        {
          "internalType": "address",
          "name": "",
          "type": "address"
        }
      ],
      "stateMutability": "view",
      "type": "function"
    },
    {
      "inputs": [
        {
          "internalType": "uint256",
          "name": "_id",
          "type": "uint256"
        }
      ],
      "name": "getOccasion",
      "outputs": [
        {
          "components": [
            {
              "internalType": "uint256",
              "name": "id",
              "type": "uint256"
            },
            {
              "internalType": "string",
              "name": "name",
              "type": "string"
            },
            {
              "internalType": "uint256",
              "name": "cost",
              "type": "uint256"
            },
            {
              "internalType": "uint256",
              "name": "tickets",
              "type": "uint256"
            },
            {
              "internalType": "uint256",
              "name": "maxTickets",
              "type": "uint256"
            },
            {
              "internalType": "string",
              "name": "date",
              "type": "string"
            },
            {
              "internalType": "string",
              "name": "time",
              "type": "string"
            },
            {
              "internalType": "string",
              "name": "location",
              "type": "string"
            }
          ],
          "internalType": "struct TokenMaster.Occasion",
          "name": "",
          "type": "tuple"
        }
      ],
      "stateMutability": "view",
      "type": "function"
    },
    {
      "inputs": [
        {
          "internalType": "uint256",
          "name": "_id",
          "type": "uint256"
        }
      ],
      "name": "getSeatsTaken",
      "outputs": [
        {
          "internalType": "uint256[]",
          "name": "",
          "type": "uint256[]"
        }
      ],
      "stateMutability": "view",
      "type": "function"
    },
    {
      "inputs": [],
      "name": "getTotalOccasions",
      "outputs": [
        {
          "internalType": "uint256",
          "name": "",
          "type": "uint256"
        }
      ],
      "stateMutability": "view",
      "type": "function"
    },
    {
      "inputs": [
        {
          "internalType": "uint256",
          "name": "",
          "type": "uint256"
        },
        {
          "internalType": "address",
          "name": "",
          "type": "address"
        }
      ],
      "name": "hasBought",
      "outputs": [
        {
          "internalType": "bool",
          "name": "",
          "type": "bool"
        }
      ],
      "stateMutability": "view",
      "type": "function"
    },
    {
      "inputs": [
        {
          "internalType": "address",
          "name": "owner",
          "type": "address"
        },
        {
          "internalType": "address",
          "name": "operator",
          "type": "address"
        }
      ],
      "name": "isApprovedForAll",
      "outputs": [
        {
          "internalType": "bool",
          "name": "",
          "type": "bool"
        }
      ],
      "stateMutability": "view",
      "type": "function"
    },
    {
      "inputs": [
        {
          "internalType": "string",
          "name": "_name",
          "type": "string"
        },
        {
          "internalType": "uint256",
          "name": "_cost",
          "type": "uint256"
        },
        {
          "internalType": "uint256",
          "name": "_maxTickets",
          "type": "uint256"
        },
        {
          "internalType": "string",
          "name": "_date",
          "type": "string"
        },
        {
          "internalType": "string",
          "name": "_time",
          "type": "string"
        },
        {
          "internalType": "string",
          "name": "_location",
          "type": "string"
        }
      ],
      "name": "list",
      "outputs": [],
      "stateMutability": "nonpayable",
      "type": "function"
    },
    {
      "inputs": [
        {
          "internalType": "uint256",
          "name": "_id",
          "type": "uint256"
        },
        {
          "internalType": "uint256",
          "name": "_seat",
          "type": "uint256"
        }
      ],
      "name": "mint",
      "outputs": [],
      "stateMutability": "payable",
      "type": "function"
    },
    {
      "inputs": [],
      "name": "name",
      "outputs": [
        {
          "internalType": "string",
          "name": "",
          "type": "string"
        }
      ],
      "stateMutability": "view",
      "type": "function"
    },
    {
      "inputs": [],
      "name": "owner",
      "outputs": [
        {
          "internalType": "address",
          "name": "",
          "type": "address"
        }
      ],
      "stateMutability": "view",
      "type": "function"
    },
    {
      "inputs": [
        {
          "internalType": "uint256",
          "name": "tokenId",
          "type": "uint256"
        }
      ],
      "name": "ownerOf",
      "outputs": [
        {
          "internalType": "address",
          "name": "",
          "type": "address"
        }
      ],
      "stateMutability": "view",
      "type": "function"
    },
    {
      "inputs": [
        {
          "internalType": "address",
          "name": "from",
          "type": "address"
        },
        {
          "internalType": "address",
          "name": "to",
          "type": "address"
        },
        {
          "internalType": "uint256",
          "name": "tokenId",
          "type": "uint256"
        }
      ],
      "name": "safeTransferFrom",
      "outputs": [],
      "stateMutability": "nonpayable",
      "type": "function"
    },
    {
      "inputs": [
        {
          "internalType": "address",
          "name": "from",
          "type": "address"
        },
        {
          "internalType": "address",
          "name": "to",
          "type": "address"
        },
        {
          "internalType": "uint256",
          "name": "tokenId",
          "type": "uint256"
        },
        {
          "internalType": "bytes",
          "name": "data",
          "type": "bytes"
        }
      ],
      "name": "safeTransferFrom",
      "outputs": [],
      "stateMutability": "nonpayable",
      "type": "function"
    },
    {
      "inputs": [
        {
          "internalType": "uint256",
          "name": "",
          "type": "uint256"
        },
        {
          "internalType": "uint256",
          "name": "",
          "type": "uint256"
        }
      ],
      "name": "seatTaken",
      "outputs": [
        {
          "internalType": "address",
          "name": "",
          "type": "address"
        }
      ],
      "stateMutability": "view",
      "type": "function"
    },
    {
      "inputs": [
        {
          "internalType": "address",
          "name": "operator",
          "type": "address"
        },
        {
          "internalType": "bool",
          "name": "approved",
          "type": "bool"
        }
      ],
      "name": "setApprovalForAll",
      "outputs": [],
      "stateMutability": "nonpayable",
      "type": "function"
    },
    {
      "inputs": [
        {
          "internalType": "bytes4",
          "name": "interfaceId",
          "type": "bytes4"
        }
      ],
      "name": "supportsInterface",
      "outputs": [
        {
          "internalType": "bool",
          "name": "",
          "type": "bool"
        }
      ],
      "stateMutability": "view",
      "type": "function"
    },
    {
      "inputs": [],
      "name": "symbol",
      "outputs": [
        {
          "internalType": "string",
          "name": "",
          "type": "string"
        }
      ],
      "stateMutability": "view",
      "type": "function"
    },
    {
      "inputs": [
        {
          "internalType": "uint256",
          "name": "tokenId",
          "type": "uint256"
        }
      ],
      "name": "tokenURI",
      "outputs": [
        {
          "internalType": "string",
          "name": "",
          "type": "string"
        }
      ],
      "stateMutability": "view",
      "type": "function"
    },
    {
      "inputs": [],
      "name": "totalOccasions",
      "outputs": [
        {
          "internalType": "uint256",
          "name": "",
          "type": "uint256"
        }
      ],
      "stateMutability": "view",
      "type": "function"
    },
    {
      "inputs": [],
      "name": "totalSupply",
      "outputs": [
        {
          "internalType": "uint256",
          "name": "",
          "type": "uint256"
        }
      ],
      "stateMutability": "view",
      "type": "function"
    },
    {
      "inputs": [
        {
          "internalType": "address",
          "name": "from",
          "type": "address"
        },
        {
          "internalType": "address",
          "name": "to",
          "type": "address"
        },
        {
          "internalType": "uint256",
          "name": "tokenId",
          "type": "uint256"
        }
      ],
      "name": "transferFrom",
      "outputs": [],
      "stateMutability": "nonpayable",
      "type": "function"
    },
    {
      "inputs": [],
      "name": "withdraw",
      "outputs": [],
      "stateMutability": "nonpayable",
      "type": "function"
    }
  ],
  "bytecode": "0x60806040523480156200001157600080fd5b5060405162003dc838038062003dc883398181016040528101906200003791906200023b565b818181600090816200004a91906200050b565b5080600190816200005c91906200050b565b50505033600660006101000a81548173ffffffffffffffffffffffffffffffffffffffff021916908373ffffffffffffffffffffffffffffffffffffffff1602179055505050620005f2565b6000604051905090565b600080fd5b600080fd5b600080fd5b600080fd5b6000601f19601f8301169050919050565b7f4e487b7100000000000000000000000000000000000000000000000000000000600052604160045260246000fd5b6200011182620000c6565b810181811067ffffffffffffffff82111715620001335762000132620000d7565b5b80604052505050565b600062000148620000a8565b905062000156828262000106565b919050565b600067ffffffffffffffff821115620001795762000178620000d7565b5b6200018482620000c6565b9050602081019050919050565b60005b83811015620001b157808201518184015260208101905062000194565b60008484015250505050565b6000620001d4620001ce846200015b565b6200013c565b905082815260208101848484011115620001f357620001f2620000c1565b5b6200020084828562000191565b509392505050565b600082601f83011262000220576200021f620000bc565b5b815162000232848260208601620001bd565b91505092915050565b60008060408385031215620002555762000254620000b2565b5b600083015167ffffffffffffffff811115620002765762000275620000b7565b5b620002848582860162000208565b925050602083015167ffffffffffffffff811115620002a857620002a7620000b7565b5b620002b68582860162000208565b9150509250929050565b600081519050919050565b7f4e487b7100000000000000000000000000000000000000000000000000000000600052602260045260246000fd5b600060028204905060018216806200031357607f821691505b602082108103620003295762000328620002cb565b5b50919050565b60008190508160005260206000209050919050565b60006020601f8301049050919050565b600082821b905092915050565b600060088302620003937fffffffffffffffffffffffffffffffffffffffffffffffffffffffffffffffff8262000354565b6200039f868362000354565b95508019841693508086168417925050509392505050565b6000819050919050565b6000819050919050565b6000620003ec620003e6620003e084620003b7565b620003c1565b620003b7565b9050919050565b6000819050919050565b6200040883620003cb565b620004206200041782620003f3565b84845462000361565b825550505050565b600090565b6200043762000428565b62000444818484620003fd565b505050565b5b818110156200046c57620004606000826200042d565b6001810190506200044a565b5050565b601f821115620004bb5762000485816200032f565b620004908462000344565b81016020851015620004a0578190505b620004b8620004af8562000344565b83018262000449565b50505b505050565b600082821c905092915050565b6000620004e060001984600802620004c0565b1980831691505092915050565b6000620004fb8383620004cd565b9150826002028217905092915050565b6200051682620002c0565b67ffffffffffffffff811115620005325762000531620000d7565b5b6200053e8254620002fa565b6200054b82828562000470565b600060209050601f8311600181146200058357600084156200056e578287015190505b6200057a8582620004ed565b865550620005ea565b601f19841662000593866200032f565b60005b82811015620005bd5784890151825560018201915060208501945060208101905062000596565b86831015620005dd5784890151620005d9601f891682620004cd565b8355505b6001600288020188555050505b505050505050565b6137c680620006026000396000f3fe60806040526004361061014b5760003560e01c806370a08231116100b65780639cb04aef1161006f5780639cb04aef14610497578063a22cb465146104d4578063af296da1146104fd578063b88d4fde1461053a578063c87b56dd14610563578063e985e9c5146105a05761014b565b806370a082311461037357806374bc8656146103b05780638da5cb5b146103ed578063953865c11461041857806395d89b41146104435780639a382f0f1461046e5761014b565b80631b2ef1ca116101085780631b2ef1ca1461028657806323b872dd146102a25780633ccfd60b146102cb57806342842e0e146102e25780636352211e1461030b5780636c8c62ae146103485761014b565b806301ffc9a71461015057806306fdde031461018d578063081812fc146101b8578063095ea7b3146101f55780630ef7ec741461021e57806318160ddd1461025b575b600080fd5b34801561015c57600080fd5b5061017760048036038101906101729190612324565b6105dd565b604051610184919061236c565b60405180910390f35b34801561019957600080fd5b506101a26106bf565b6040516101af9190612417565b60405180910390f35b3480156101c457600080fd5b506101df60048036038101906101da919061246f565b610751565b6040516101ec91906124dd565b60405180910390f35b34801561020157600080fd5b5061021c60048036038101906102179190612524565b610797565b005b34801561022a57600080fd5b506102456004803603810190610240919061246f565b6108ae565b6040516102529190612622565b60405180910390f35b34801561026757600080fd5b50610270610919565b60405161027d9190612653565b60405180910390f35b6102a0600480360381019061029b919061266e565b61091f565b005b3480156102ae57600080fd5b506102c960048036038101906102c491906126ae565b610b5a565b005b3480156102d757600080fd5b506102e0610bba565b005b3480156102ee57600080fd5b50610309600480360381019061030491906126ae565b610caf565b005b34801561031757600080fd5b50610332600480360381019061032d919061246f565b610ccf565b60405161033f91906124dd565b60405180910390f35b34801561035457600080fd5b5061035d610d55565b60405161036a9190612653565b60405180910390f35b34801561037f57600080fd5b5061039a60048036038101906103959190612701565b610d5f565b6040516103a79190612653565b60405180910390f35b3480156103bc57600080fd5b506103d760048036038101906103d2919061246f565b610e16565b6040516103e4919061283d565b60405180910390f35b3480156103f957600080fd5b506104026110b4565b60405161040f91906124dd565b60405180910390f35b34801561042457600080fd5b5061042d6110da565b60405161043a9190612653565b60405180910390f35b34801561044f57600080fd5b506104586110e0565b6040516104659190612417565b60405180910390f35b34801561047a57600080fd5b5061049560048036038101906104909190612994565b611172565b005b3480156104a357600080fd5b506104be60048036038101906104b99190612a91565b6112c0565b6040516104cb919061236c565b60405180910390f35b3480156104e057600080fd5b506104fb60048036038101906104f69190612afd565b6112ef565b005b34801561050957600080fd5b50610524600480360381019061051f919061266e565b611305565b60405161053191906124dd565b60405180910390f35b34801561054657600080fd5b50610561600480360381019061055c9190612bde565b611347565b005b34801561056f57600080fd5b5061058a6004803603810190610585919061246f565b6113a9565b6040516105979190612417565b60405180910390f35b3480156105ac57600080fd5b506105c760048036038101906105c29190612c61565b611411565b6040516105d4919061236c565b60405180910390f35b60007f80ac58cd000000000000000000000000000000000000000000000000000000007bffffffffffffffffffffffffffffffffffffffffffffffffffffffff1916827bffffffffffffffffffffffffffffffffffffffffffffffffffffffff191614806106a857507f5b5e139f000000000000000000000000000000000000000000000000000000007bffffffffffffffffffffffffffffffffffffffffffffffffffffffff1916827bffffffffffffffffffffffffffffffffffffffffffffffffffffffff1916145b806106b857506106b7826114a5565b5b9050919050565b6060600080546106ce90612cd0565b80601f01602080910402602001604051908101604052809291908181526020018280546106fa90612cd0565b80156107475780601f1061071c57610100808354040283529160200191610747565b820191906000526020600020905b81548152906001019060200180831161072a57829003601f168201915b5050505050905090565b600061075c8261150f565b6004600083815260200190815260200160002060009054906101000a900473ffffffffffffffffffffffffffffffffffffffff169050919050565b60006107a282610ccf565b90508073ffffffffffffffffffffffffffffffffffffffff168373ffffffffffffffffffffffffffffffffffffffff1603610812576040517f08c379a000000000000000000000000000000000000000000000000000000000815260040161080990612d73565b60405180910390fd5b8073ffffffffffffffffffffffffffffffffffffffff1661083161155a565b73ffffffffffffffffffffffffffffffffffffffff161480610860575061085f8161085a61155a565b611411565b5b61089f576040517f08c379a000000000000000000000000000000000000000000000000000000000815260040161089690612e05565b60405180910390fd5b6108a98383611562565b505050565b6060600c600083815260200190815260200160002080548060200260200160405190810160405280929190818152602001828054801561090d57602002820191906000526020600020905b8154815260200190600101908083116108f9575b50505050509050919050565b60085481565b6000820361092c57600080fd5b60075482111561093b57600080fd5b600960008381526020019081526020016000206002015434101561095e57600080fd5b600073ffffffffffffffffffffffffffffffffffffffff16600b6000848152602001908152602001600020600083815260200190815260200160002060009054906101000a900473ffffffffffffffffffffffffffffffffffffffff1673ffffffffffffffffffffffffffffffffffffffff16146109db57600080fd5b60096000838152602001908152602001600020600401548111156109fe57600080fd5b6001600960008481526020019081526020016000206003016000828254610a259190612e54565b925050819055506001600a600084815260200190815260200160002060003373ffffffffffffffffffffffffffffffffffffffff1673ffffffffffffffffffffffffffffffffffffffff16815260200190815260200160002060006101000a81548160ff02191690831515021790555033600b6000848152602001908152602001600020600083815260200190815260200160002060006101000a81548173ffffffffffffffffffffffffffffffffffffffff021916908373ffffffffffffffffffffffffffffffffffffffff160217905550600c600083815260200190815260200160002081908060018154018082558091505060019003906000526020600020016000909190919091505560086000815480929190610b4590612e88565b9190505550610b563360085461161b565b5050565b610b6b610b6561155a565b82611639565b610baa576040517f08c379a0000000000000000000000000000000000000000000000000000000008152600401610ba190612f42565b60405180910390fd5b610bb58383836116ce565b505050565b600660009054906101000a900473ffffffffffffffffffffffffffffffffffffffff1673ffffffffffffffffffffffffffffffffffffffff163373ffffffffffffffffffffffffffffffffffffffff1614610c1457600080fd5b6000600660009054906101000a900473ffffffffffffffffffffffffffffffffffffffff1673ffffffffffffffffffffffffffffffffffffffff1647604051610c5c90612f93565b60006040518083038185875af1925050503d8060008114610c99576040519150601f19603f3d011682016040523d82523d6000602084013e610c9e565b606091505b5050905080610cac57600080fd5b50565b610cca83838360405180602001604052806000815250611347565b505050565b600080610cdb836119c7565b9050600073ffffffffffffffffffffffffffffffffffffffff168173ffffffffffffffffffffffffffffffffffffffff1603610d4c576040517f08c379a0000000000000000000000000000000000000000000000000000000008152600401610d4390612ff4565b60405180910390fd5b80915050919050565b6000600754905090565b60008073ffffffffffffffffffffffffffffffffffffffff168273ffffffffffffffffffffffffffffffffffffffff1603610dcf576040517f08c379a0000000000000000000000000000000000000000000000000000000008152600401610dc690613086565b60405180910390fd5b600360008373ffffffffffffffffffffffffffffffffffffffff1673ffffffffffffffffffffffffffffffffffffffff168152602001908152602001600020549050919050565b610e1e612273565b600960008381526020019081526020016000206040518061010001604052908160008201548152602001600182018054610e5790612cd0565b80601f0160208091040260200160405190810160405280929190818152602001828054610e8390612cd0565b8015610ed05780601f10610ea557610100808354040283529160200191610ed0565b820191906000526020600020905b815481529060010190602001808311610eb357829003601f168201915b50505050508152602001600282015481526020016003820154815260200160048201548152602001600582018054610f0790612cd0565b80601f0160208091040260200160405190810160405280929190818152602001828054610f3390612cd0565b8015610f805780601f10610f5557610100808354040283529160200191610f80565b820191906000526020600020905b815481529060010190602001808311610f6357829003601f168201915b50505050508152602001600682018054610f9990612cd0565b80601f0160208091040260200160405190810160405280929190818152602001828054610fc590612cd0565b80156110125780601f10610fe757610100808354040283529160200191611012565b820191906000526020600020905b815481529060010190602001808311610ff557829003601f168201915b5050505050815260200160078201805461102b90612cd0565b80601f016020809104026020016040519081016040528092919081815260200182805461105790612cd0565b80156110a45780601f10611079576101008083540402835291602001916110a4565b820191906000526020600020905b81548152906001019060200180831161108757829003601f168201915b5050505050815250509050919050565b600660009054906101000a900473ffffffffffffffffffffffffffffffffffffffff1681565b60075481565b6060600180546110ef90612cd0565b80601f016020809104026020016040519081016040528092919081815260200182805461111b90612cd0565b80156111685780601f1061113d57610100808354040283529160200191611168565b820191906000526020600020905b81548152906001019060200180831161114b57829003601f168201915b5050505050905090565b600660009054906101000a900473ffffffffffffffffffffffffffffffffffffffff1673ffffffffffffffffffffffffffffffffffffffff163373ffffffffffffffffffffffffffffffffffffffff16146111cc57600080fd5b600760008154809291906111df90612e88565b91905055506040518061010001604052806007548152602001878152602001868152602001858152602001858152602001848152602001838152602001828152506009600060075481526020019081526020016000206000820151816000015560208201518160010190816112549190613252565b5060408201518160020155606082015181600301556080820151816004015560a08201518160050190816112889190613252565b5060c082015181600601908161129e9190613252565b5060e08201518160070190816112b49190613252565b50905050505050505050565b600a6020528160005260406000206020528060005260406000206000915091509054906101000a900460ff1681565b6113016112fa61155a565b8383611a04565b5050565b600b6020528160005260406000206020528060005260406000206000915091509054906101000a900473ffffffffffffffffffffffffffffffffffffffff1681565b61135861135261155a565b83611639565b611397576040517f08c379a000000000000000000000000000000000000000000000000000000000815260040161138e90612f42565b60405180910390fd5b6113a384848484611b70565b50505050565b60606113b48261150f565b60006113be611bcc565b905060008151116113de5760405180602001604052806000815250611409565b806113e884611be3565b6040516020016113f9929190613360565b6040516020818303038152906040525b915050919050565b6000600560008473ffffffffffffffffffffffffffffffffffffffff1673ffffffffffffffffffffffffffffffffffffffff16815260200190815260200160002060008373ffffffffffffffffffffffffffffffffffffffff1673ffffffffffffffffffffffffffffffffffffffff16815260200190815260200160002060009054906101000a900460ff16905092915050565b60007f01ffc9a7000000000000000000000000000000000000000000000000000000007bffffffffffffffffffffffffffffffffffffffffffffffffffffffff1916827bffffffffffffffffffffffffffffffffffffffffffffffffffffffff1916149050919050565b61151881611cb1565b611557576040517f08c379a000000000000000000000000000000000000000000000000000000000815260040161154e90612ff4565b60405180910390fd5b50565b600033905090565b816004600083815260200190815260200160002060006101000a81548173ffffffffffffffffffffffffffffffffffffffff021916908373ffffffffffffffffffffffffffffffffffffffff160217905550808273ffffffffffffffffffffffffffffffffffffffff166115d583610ccf565b73ffffffffffffffffffffffffffffffffffffffff167f8c5be1e5ebec7d5bd14f71427d1e84f3dd0314c0f7b2291e5b200ac8c7c3b92560405160405180910390a45050565b611635828260405180602001604052806000815250611cf2565b5050565b60008061164583610ccf565b90508073ffffffffffffffffffffffffffffffffffffffff168473ffffffffffffffffffffffffffffffffffffffff16148061168757506116868185611411565b5b806116c557508373ffffffffffffffffffffffffffffffffffffffff166116ad84610751565b73ffffffffffffffffffffffffffffffffffffffff16145b91505092915050565b8273ffffffffffffffffffffffffffffffffffffffff166116ee82610ccf565b73ffffffffffffffffffffffffffffffffffffffff1614611744576040517f08c379a000000000000000000000000000000000000000000000000000000000815260040161173b906133f6565b60405180910390fd5b600073ffffffffffffffffffffffffffffffffffffffff168273ffffffffffffffffffffffffffffffffffffffff16036117b3576040517f08c379a00000000000000000000000000000000000000000000000000000000081526004016117aa90613488565b60405180910390fd5b6117c08383836001611d4d565b8273ffffffffffffffffffffffffffffffffffffffff166117e082610ccf565b73ffffffffffffffffffffffffffffffffffffffff1614611836576040517f08c379a000000000000000000000000000000000000000000000000000000000815260040161182d906133f6565b60405180910390fd5b6004600082815260200190815260200160002060006101000a81549073ffffffffffffffffffffffffffffffffffffffff02191690556001600360008573ffffffffffffffffffffffffffffffffffffffff1673ffffffffffffffffffffffffffffffffffffffff168152602001908152602001600020600082825403925050819055506001600360008473ffffffffffffffffffffffffffffffffffffffff1673ffffffffffffffffffffffffffffffffffffffff16815260200190815260200160002060008282540192505081905550816002600083815260200190815260200160002060006101000a81548173ffffffffffffffffffffffffffffffffffffffff021916908373ffffffffffffffffffffffffffffffffffffffff160217905550808273ffffffffffffffffffffffffffffffffffffffff168473ffffffffffffffffffffffffffffffffffffffff167fddf252ad1be2c89b69c2b068fc378daa952ba7f163c4a11628f55a4df523b3ef60405160405180910390a46119c28383836001611d53565b505050565b60006002600083815260200190815260200160002060009054906101000a900473ffffffffffffffffffffffffffffffffffffffff169050919050565b8173ffffffffffffffffffffffffffffffffffffffff168373ffffffffffffffffffffffffffffffffffffffff1603611a72576040517f08c379a0000000000000000000000000000000000000000000000000000000008152600401611a69906134f4565b60405180910390fd5b80600560008573ffffffffffffffffffffffffffffffffffffffff1673ffffffffffffffffffffffffffffffffffffffff16815260200190815260200160002060008473ffffffffffffffffffffffffffffffffffffffff1673ffffffffffffffffffffffffffffffffffffffff16815260200190815260200160002060006101000a81548160ff0219169083151502179055508173ffffffffffffffffffffffffffffffffffffffff168373ffffffffffffffffffffffffffffffffffffffff167f17307eab39ab6107e8899845ad3d59bd9653f200f220920489ca2b5937696c3183604051611b63919061236c565b60405180910390a3505050565b611b7b8484846116ce565b611b8784848484611d59565b611bc6576040517f08c379a0000000000000000000000000000000000000000000000000000000008152600401611bbd90613586565b60405180910390fd5b50505050565b606060405180602001604052806000815250905090565b606060006001611bf284611ee0565b01905060008167ffffffffffffffff811115611c1157611c10612869565b5b6040519080825280601f01601f191660200182016040528015611c435781602001600182028036833780820191505090505b509050600082602001820190505b600115611ca6578080600190039150507f3031323334353637383961626364656600000000000000000000000000000000600a86061a8153600a8581611c9a57611c996135a6565b5b04945060008503611c51575b819350505050919050565b60008073ffffffffffffffffffffffffffffffffffffffff16611cd3836119c7565b73ffffffffffffffffffffffffffffffffffffffff1614159050919050565b611cfc8383612033565b611d096000848484611d59565b611d48576040517f08c379a0000000000000000000000000000000000000000000000000000000008152600401611d3f90613586565b60405180910390fd5b505050565b50505050565b50505050565b6000611d7a8473ffffffffffffffffffffffffffffffffffffffff16612250565b15611ed3578373ffffffffffffffffffffffffffffffffffffffff1663150b7a02611da361155a565b8786866040518563ffffffff1660e01b8152600401611dc5949392919061362a565b6020604051808303816000875af1925050508015611e0157506040513d601f19601f82011682018060405250810190611dfe919061368b565b60015b611e83573d8060008114611e31576040519150601f19603f3d011682016040523d82523d6000602084013e611e36565b606091505b506000815103611e7b576040517f08c379a0000000000000000000000000000000000000000000000000000000008152600401611e7290613586565b60405180910390fd5b805181602001fd5b63150b7a0260e01b7bffffffffffffffffffffffffffffffffffffffffffffffffffffffff1916817bffffffffffffffffffffffffffffffffffffffffffffffffffffffff191614915050611ed8565b600190505b949350505050565b600080600090507a184f03e93ff9f4daa797ed6e38ed64bf6a1f0100000000000000008310611f3e577a184f03e93ff9f4daa797ed6e38ed64bf6a1f0100000000000000008381611f3457611f336135a6565b5b0492506040810190505b6d04ee2d6d415b85acef81000000008310611f7b576d04ee2d6d415b85acef81000000008381611f7157611f706135a6565b5b0492506020810190505b662386f26fc100008310611faa57662386f26fc100008381611fa057611f9f6135a6565b5b0492506010810190505b6305f5e1008310611fd3576305f5e1008381611fc957611fc86135a6565b5b0492506008810190505b6127108310611ff8576127108381611fee57611fed6135a6565b5b0492506004810190505b6064831061201b5760648381612011576120106135a6565b5b0492506002810190505b600a831061202a576001810190505b80915050919050565b600073ffffffffffffffffffffffffffffffffffffffff168273ffffffffffffffffffffffffffffffffffffffff16036120a2576040517f08c379a000000000000000000000000000000000000000000000000000000000815260040161209990613704565b60405180910390fd5b6120ab81611cb1565b156120eb576040517f08c379a00000000000000000000000000000000000000000000000000000000081526004016120e290613770565b60405180910390fd5b6120f9600083836001611d4d565b61210281611cb1565b15612142576040517f08c379a000000000000000000000000000000000000000000000000000000000815260040161213990613770565b60405180910390fd5b6001600360008473ffffffffffffffffffffffffffffffffffffffff1673ffffffffffffffffffffffffffffffffffffffff16815260200190815260200160002060008282540192505081905550816002600083815260200190815260200160002060006101000a81548173ffffffffffffffffffffffffffffffffffffffff021916908373ffffffffffffffffffffffffffffffffffffffff160217905550808273ffffffffffffffffffffffffffffffffffffffff16600073ffffffffffffffffffffffffffffffffffffffff167fddf252ad1be2c89b69c2b068fc378daa952ba7f163c4a11628f55a4df523b3ef60405160405180910390a461224c600083836001611d53565b5050565b6000808273ffffffffffffffffffffffffffffffffffffffff163b119050919050565b60405180610100016040528060008152602001606081526020016000815260200160008152602001600081526020016060815260200160608152602001606081525090565b6000604051905090565b600080fd5b600080fd5b60007fffffffff0000000000000000000000000000000000000000000000000000000082169050919050565b612301816122cc565b811461230c57600080fd5b50565b60008135905061231e816122f8565b92915050565b60006020828403121561233a576123396122c2565b5b60006123488482850161230f565b91505092915050565b60008115159050919050565b61236681612351565b82525050565b6000602082019050612381600083018461235d565b92915050565b600081519050919050565b600082825260208201905092915050565b60005b838110156123c15780820151818401526020810190506123a6565b60008484015250505050565b6000601f19601f8301169050919050565b60006123e982612387565b6123f38185612392565b93506124038185602086016123a3565b61240c816123cd565b840191505092915050565b6000602082019050818103600083015261243181846123de565b905092915050565b6000819050919050565b61244c81612439565b811461245757600080fd5b50565b60008135905061246981612443565b92915050565b600060208284031215612485576124846122c2565b5b60006124938482850161245a565b91505092915050565b600073ffffffffffffffffffffffffffffffffffffffff82169050919050565b60006124c78261249c565b9050919050565b6124d7816124bc565b82525050565b60006020820190506124f260008301846124ce565b92915050565b612501816124bc565b811461250c57600080fd5b50565b60008135905061251e816124f8565b92915050565b6000806040838503121561253b5761253a6122c2565b5b60006125498582860161250f565b925050602061255a8582860161245a565b9150509250929050565b600081519050919050565b600082825260208201905092915050565b6000819050602082019050919050565b61259981612439565b82525050565b60006125ab8383612590565b60208301905092915050565b6000602082019050919050565b60006125cf82612564565b6125d9818561256f565b93506125e483612580565b8060005b838110156126155781516125fc888261259f565b9750612607836125b7565b9250506001810190506125e8565b5085935050505092915050565b6000602082019050818103600083015261263c81846125c4565b905092915050565b61264d81612439565b82525050565b60006020820190506126686000830184612644565b92915050565b60008060408385031215612685576126846122c2565b5b60006126938582860161245a565b92505060206126a48582860161245a565b9150509250929050565b6000806000606084860312156126c7576126c66122c2565b5b60006126d58682870161250f565b93505060206126e68682870161250f565b92505060406126f78682870161245a565b9150509250925092565b600060208284031215612717576127166122c2565b5b60006127258482850161250f565b91505092915050565b600082825260208201905092915050565b600061274a82612387565b612754818561272e565b93506127648185602086016123a3565b61276d816123cd565b840191505092915050565b6000610100830160008301516127916000860182612590565b50602083015184820360208601526127a9828261273f565b91505060408301516127be6040860182612590565b5060608301516127d16060860182612590565b5060808301516127e46080860182612590565b5060a083015184820360a08601526127fc828261273f565b91505060c083015184820360c0860152612816828261273f565b91505060e083015184820360e0860152612830828261273f565b9150508091505092915050565b600060208201905081810360008301526128578184612778565b905092915050565b600080fd5b600080fd5b7f4e487b7100000000000000000000000000000000000000000000000000000000600052604160045260246000fd5b6128a1826123cd565b810181811067ffffffffffffffff821117156128c0576128bf612869565b5b80604052505050565b60006128d36122b8565b90506128df8282612898565b919050565b600067ffffffffffffffff8211156128ff576128fe612869565b5b612908826123cd565b9050602081019050919050565b82818337600083830152505050565b6000612937612932846128e4565b6128c9565b90508281526020810184848401111561295357612952612864565b5b61295e848285612915565b509392505050565b600082601f83011261297b5761297a61285f565b5b813561298b848260208601612924565b91505092915050565b60008060008060008060c087890312156129b1576129b06122c2565b5b600087013567ffffffffffffffff8111156129cf576129ce6122c7565b5b6129db89828a01612966565b96505060206129ec89828a0161245a565b95505060406129fd89828a0161245a565b945050606087013567ffffffffffffffff811115612a1e57612a1d6122c7565b5b612a2a89828a01612966565b935050608087013567ffffffffffffffff811115612a4b57612a4a6122c7565b5b612a5789828a01612966565b92505060a087013567ffffffffffffffff811115612a7857612a776122c7565b5b612a8489828a01612966565b9150509295509295509295565b60008060408385031215612aa857612aa76122c2565b5b6000612ab68582860161245a565b9250506020612ac78582860161250f565b9150509250929050565b612ada81612351565b8114612ae557600080fd5b50565b600081359050612af781612ad1565b92915050565b60008060408385031215612b1457612b136122c2565b5b6000612b228582860161250f565b9250506020612b3385828601612ae8565b9150509250929050565b600067ffffffffffffffff821115612b5857612b57612869565b5b612b61826123cd565b9050602081019050919050565b6000612b81612b7c84612b3d565b6128c9565b905082815260208101848484011115612b9d57612b9c612864565b5b612ba8848285612915565b509392505050565b600082601f830112612bc557612bc461285f565b5b8135612bd5848260208601612b6e565b91505092915050565b60008060008060808587031215612bf857612bf76122c2565b5b6000612c068782880161250f565b9450506020612c178782880161250f565b9350506040612c288782880161245a565b925050606085013567ffffffffffffffff811115612c4957612c486122c7565b5b612c5587828801612bb0565b91505092959194509250565b60008060408385031215612c7857612c776122c2565b5b6000612c868582860161250f565b9250506020612c978582860161250f565b9150509250929050565b7f4e487b7100000000000000000000000000000000000000000000000000000000600052602260045260246000fd5b60006002820490506001821680612ce857607f821691505b602082108103612cfb57612cfa612ca1565b5b50919050565b7f4552433732313a20617070726f76616c20746f2063757272656e74206f776e6560008201527f7200000000000000000000000000000000000000000000000000000000000000602082015250565b6000612d5d602183612392565b9150612d6882612d01565b604082019050919050565b60006020820190508181036000830152612d8c81612d50565b9050919050565b7f4552433732313a20617070726f76652063616c6c6572206973206e6f7420746f60008201527f6b656e206f776e6572206f7220617070726f76656420666f7220616c6c000000602082015250565b6000612def603d83612392565b9150612dfa82612d93565b604082019050919050565b60006020820190508181036000830152612e1e81612de2565b9050919050565b7f4e487b7100000000000000000000000000000000000000000000000000000000600052601160045260246000fd5b6000612e5f82612439565b9150612e6a83612439565b9250828203905081811115612e8257612e81612e25565b5b92915050565b6000612e9382612439565b91507fffffffffffffffffffffffffffffffffffffffffffffffffffffffffffffffff8203612ec557612ec4612e25565b5b600182019050919050565b7f4552433732313a2063616c6c6572206973206e6f7420746f6b656e206f776e6560008201527f72206f7220617070726f76656400000000000000000000000000000000000000602082015250565b6000612f2c602d83612392565b9150612f3782612ed0565b604082019050919050565b60006020820190508181036000830152612f5b81612f1f565b9050919050565b600081905092915050565b50565b6000612f7d600083612f62565b9150612f8882612f6d565b600082019050919050565b6000612f9e82612f70565b9150819050919050565b7f4552433732313a20696e76616c696420746f6b656e2049440000000000000000600082015250565b6000612fde601883612392565b9150612fe982612fa8565b602082019050919050565b6000602082019050818103600083015261300d81612fd1565b9050919050565b7f4552433732313a2061646472657373207a65726f206973206e6f74206120766160008201527f6c6964206f776e65720000000000000000000000000000000000000000000000602082015250565b6000613070602983612392565b915061307b82613014565b604082019050919050565b6000602082019050818103600083015261309f81613063565b9050919050565b60008190508160005260206000209050919050565b60006020601f8301049050919050565b600082821b905092915050565b6000600883026131087fffffffffffffffffffffffffffffffffffffffffffffffffffffffffffffffff826130cb565b61311286836130cb565b95508019841693508086168417925050509392505050565b6000819050919050565b600061314f61314a61314584612439565b61312a565b612439565b9050919050565b6000819050919050565b61316983613134565b61317d61317582613156565b8484546130d8565b825550505050565b600090565b613192613185565b61319d818484613160565b505050565b5b818110156131c1576131b660008261318a565b6001810190506131a3565b5050565b601f821115613206576131d7816130a6565b6131e0846130bb565b810160208510156131ef578190505b6132036131fb856130bb565b8301826131a2565b50505b505050565b600082821c905092915050565b60006132296000198460080261320b565b1980831691505092915050565b60006132428383613218565b9150826002028217905092915050565b61325b82612387565b67ffffffffffffffff81111561327457613273612869565b5b61327e8254612cd0565b6132898282856131c5565b600060209050601f8311600181146132bc57600084156132aa578287015190505b6132b48582613236565b86555061331c565b601f1984166132ca866130a6565b60005b828110156132f2578489015182556001820191506020850194506020810190506132cd565b8683101561330f578489015161330b601f891682613218565b8355505b6001600288020188555050505b505050505050565b600081905092915050565b600061333a82612387565b6133448185613324565b93506133548185602086016123a3565b80840191505092915050565b600061336c828561332f565b9150613378828461332f565b91508190509392505050565b7f4552433732313a207472616e736665722066726f6d20696e636f72726563742060008201527f6f776e6572000000000000000000000000000000000000000000000000000000602082015250565b60006133e0602583612392565b91506133eb82613384565b604082019050919050565b6000602082019050818103600083015261340f816133d3565b9050919050565b7f4552433732313a207472616e7366657220746f20746865207a65726f2061646460008201527f7265737300000000000000000000000000000000000000000000000000000000602082015250565b6000613472602483612392565b915061347d82613416565b604082019050919050565b600060208201905081810360008301526134a181613465565b9050919050565b7f4552433732313a20617070726f766520746f2063616c6c657200000000000000600082015250565b60006134de601983612392565b91506134e9826134a8565b602082019050919050565b6000602082019050818103600083015261350d816134d1565b9050919050565b7f4552433732313a207472616e7366657220746f206e6f6e20455243373231526560008201527f63656976657220696d706c656d656e7465720000000000000000000000000000602082015250565b6000613570603283612392565b915061357b82613514565b604082019050919050565b6000602082019050818103600083015261359f81613563565b9050919050565b7f4e487b7100000000000000000000000000000000000000000000000000000000600052601260045260246000fd5b600081519050919050565b600082825260208201905092915050565b60006135fc826135d5565b61360681856135e0565b93506136168185602086016123a3565b61361f816123cd565b840191505092915050565b600060808201905061363f60008301876124ce565b61364c60208301866124ce565b6136596040830185612644565b818103606083015261366b81846135f1565b905095945050505050565b600081519050613685816122f8565b92915050565b6000602082840312156136a1576136a06122c2565b5b60006136af84828501613676565b91505092915050565b7f4552433732313a206d696e7420746f20746865207a65726f2061646472657373600082015250565b60006136ee602083612392565b91506136f9826136b8565b602082019050919050565b6000602082019050818103600083015261371d816136e1565b9050919050565b7f4552433732313a20746f6b656e20616c7265616479206d696e74656400000000600082015250565b600061375a601c83612392565b915061376582613724565b602082019050919050565b600060208201905081810360008301526137898161374d565b905091905056fea2646970667358221220e046b2f014e7447be2e7425fa29b5d6b6088583877605c52abfc10f8c608190664736f6c63430008110033",
  "linkReferences": {},
  "deployedLinkReferences": {}
}